:100000000C9462000C948A000C948A000C948A0070
:100010000C948A000C948A000C948A000C948A0038
:100020000C948A000C948A000C948A000C9481032E
:100030000C948A000C948A000C948A000C948A0018
:100040000C94DF020C948A000C944F030C94290347
:100050000C948A000C948A000C948A000C948A00F8
:100060000C948A000C948A000000000023002600F3
:10007000290000000000240027002A0000000000E2
:10008000250028002B0004040404040404040202D4
:100090000202020203030303030301020408102007
:1000A0004080010204081020010204081020000012
:1000B0000008000201000003040700000000000027
:1000C0000000820411241FBECFEFD8E0DEBFCDBFF9
:1000D00011E0A0E0B1E0E0EBF0E102C005900D928C
:1000E000A831B107D9F721E0A8E1B1E001C01D9224
:1000F000AD3EB207E1F710E0C2E6D0E004C02197C0
:10010000FE010E945008C136D107C9F70E94DF04E2
:100110000C9456080C9400008F929F92AF92BF925D
:10012000FF920F931F93CF93DF93F090EA012BE0A0
:100130002F1508F44CC02091EC0108E512E0021BD9
:10014000110927FD1395000F111F000F111F20919A
:10015000EB01C8E8D0E0C21BD10927FDD395CC0F35
:10016000DD1FCC0FDD1F4E010D2E000CAA08BB08B1
:100170009801012E000C440B550B281939094A0926
:100180005B09DC010E94DA0624EB30E040E050E03D
:100190000E94B006820E931EA41EB51E8C169D06EC
:1001A0002CF0E801801691060CF4E4012297CC0FA4
:1001B000DD1F2FB7F8948F2D90E0FC01EE0FFF1F8D
:1001C000E80FF91FEB53FE4FD283C1832FBFDF919E
:1001D000CF911F910F91FF90BF90AF909F908F9004
:1001E000089590E0FC01E255FF4F2491FC01E65692
:1001F000FF4F3491FC01EA57FF4FE491EE23C9F021
:10020000222339F0233001F1A8F4213019F12230F2
:1002100029F1F0E0EE0FFF1FE458FF4FA591B491D4
:100220008FB7F894EC91611126C030953E233C9332
:100230008FBF08952730A9F02830C9F0243049F73E
:10024000809180008F7D03C0809180008F778093A4
:100250008000DFCF84B58F7784BDDBCF84B58F7D01
:10026000FBCF8091B0008F778093B000D2CF809188
:10027000B0008F7DF9CF3E2BDACFCF93DF9390E0A4
:10028000FC01E656FF4F24918A579F4FFC01849151
:100290008823D1F090E0880F991FFC01EE58FF4FA2
:1002A000A591B491FC01E458FF4FC591D49161111F
:1002B0000EC09FB7F8948C91E22FE0958E238C931B
:1002C0002881E223E8839FBFDF91CF9108958FB704
:1002D000F894EC91E22BEC938FBFF6CF3FB7F894F4
:1002E0008091240190912501A0912601B0912701D0
:1002F00026B5A89B05C02F3F19F00196A11DB11D81
:100300003FBFBA2FA92F982F8827BC01CD01620FBC
:10031000711D811D911D42E0660F771F881F991F77
:100320004A95D1F708958F929F92AF92BF92CF9244
:10033000DF92EF92FF924B015C010E946E016B0114
:100340007C010E946E016C197D098E099F09683E2F
:10035000734081059105A8F321E0821A9108A10854
:10036000B10888EEC80E83E0D81EE11CF11C811490
:100370009104A104B10429F7FF90EF90DF90CF9092
:10038000BF90AF909F908F900895AF92BF92CF9201
:10039000DF92EF92FF920F931F93CF93DF936C0145
:1003A0007B018B01040F151FEB015E01AE18BF0826
:1003B000C017D10759F06991D601ED91FC910190D8
:1003C000F081E02DC6010995892B79F7C501DF91F0
:1003D000CF911F910F91FF90EF90DF90CF90BF9042
:1003E000AF900895FC01538D448D252F30E0842F6C
:1003F00090E0821B930B541710F0CF96089501974D
:100400000895FC01918D828D981761F0A28DAE0F39
:10041000BF2FB11D5D968C91928D9F5F9F73928FC0
:1004200090E008958FEF9FEF0895FC01918D828DEC
:10043000981731F0828DE80FF11D858D90E00895B9
:100440008FEF9FEF0895FC01918D228D892F90E011
:10045000805C9F4F821B91098F739927089588E2D2
:1004600091E00E94230221E0892B09F420E0822FF1
:10047000089580E090E0892B29F00E942F028111DD
:100480000C9400000895FC01A48DA80FB92FB11D94
:10049000A35ABF4F2C91848D90E001968F739927BA
:1004A000848FA689B7892C93A089B1898C91837098
:1004B00080648C93938D848D981306C00288F38991
:1004C000E02D80818F7D80830895EF92FF920F93BE
:1004D0001F93CF93DF93EC0181E0888F9B8D8C8DF0
:1004E00098131AC0E889F989808185FF15C09FB7E4
:1004F000F894EE89FF896083E889F98980818370A7
:10050000806480839FBF81E090E0DF91CF911F9155
:100510000F91FF90EF900895F62E0B8D10E00F5F76
:100520001F4F0F731127E02E8C8D8E110CC00FB64C
:1005300007FCFACFE889F989808185FFF5CFCE01E4
:100540000E944302F1CFEB8DEC0FFD2FF11DE35A1A
:10055000FF4FF0829FB7F8940B8FEA89FB89808167
:100560008062CFCFCF93DF93EC01888D8823B9F0E1
:10057000AA89BB89E889F9898C9185FD03C08081AE
:1005800086FD0DC00FB607FCF7CF8C9185FFF2CF2B
:10059000808185FFEDCFCE010E944302E9CFDF913C
:1005A000CF910895FC0101900020E9F73197AF0148
:1005B000481B590BBC0188E291E00C94C5011F92C5
:1005C0000F920FB60F9211242F933F938F939F9307
:1005D000AF93BF938091200190912101A0912201BE
:1005E000B091230130911F0123E0230F2D3758F5DF
:1005F0000196A11DB11D20931F01809320019093AE
:100600002101A0932201B0932301809124019091B4
:100610002501A0912601B09127010196A11DB11DD0
:100620008093240190932501A0932601B093270184
:10063000BF91AF919F918F913F912F910F900FBEDE
:100640000F901F90189526E8230F0296A11DB11D4B
:10065000D2CF1F920F920FB60F9211242F933F9378
:100660004F935F936F937F938F939F93AF93BF93BA
:10067000EF93FF9388E291E00E944302FF91EF9194
:10068000BF91AF919F918F917F916F915F914F91AA
:100690003F912F910F900FBE0F901F9018951F92B2
:1006A0000F920FB60F9211242F938F939F93EF9376
:1006B000FF93E0913801F09139018081E0913E0192
:1006C000F0913F0182FD1BC09081809141018F5FBD
:1006D0008F7320914201821741F0E0914101F0E0D7
:1006E000E85DFE4F958F80934101FF91EF919F91BF
:1006F0008F912F910F900FBE0F901F9018958081B2
:10070000F4CF1F920F920FB60F9211242F933F93A5
:100710004F935F936F937F938F939F93AF93BF9309
:10072000CF93DF93EF93FF9380911801C091E9017C
:10073000D0E087FF24C01092850010928400809141
:1007400018018F5F8093180180911801082E000C0A
:10075000990B8C179D0724F4809118018C30C4F1FB
:100760008091840090918500049680349C4908F41F
:100770007AC08091840090918500049676C0809123
:100780001801082E000C990B8C179D07C4F6E091F8
:1007900018018E2FEE0F990BFC01EE0FFF1FE80FD3
:1007A000F91FEB53FE4F808186FFC9CFE0911801FE
:1007B0008E2FEE0F990BFC01EE0FFF1FE80FF91FB4
:1007C000EB53FE4F808160E08F730E94F100B7CF42
:1007D0002091840030918500E09118018E2FEE0F5A
:1007E000990BFC01EE0FFF1FE80FF91FEB53FE4FB3
:1007F00081819281820F931F90938900809388005A
:10080000E09118018E2FEE0F990BFC01EE0FFF1FE8
:10081000E80FF91FEB53FE4F808186FF11C0E09176
:1008200018018E2FEE0F990BFC01EE0FFF1FE80F42
:10083000F91FEB53FE4F808161E08F730E94F1003E
:10084000FF91EF91DF91CF91BF91AF919F918F91E8
:100850007F916F915F914F913F912F910F900FBEBC
:100860000F901F90189580E49CE9909389008093E5
:1008700088008FEF80931801E3CFCF92DF92EF9241
:10088000FF920F931F93E82FF92F05C00150110914
:100890002109310961F1908196239417B9F305C0BC
:1008A000015011092109310911F190819623941306
:1008B000F7CFC12CD12CE12CF12C0AC08FEFC81A34
:1008C000D80AE80AF80A0C151D052E053F0579F02F
:1008D00080818623841791F36C2D7D2D8E2D9F2D85
:1008E0001F910F91FF90EF90DF90CF90089560E0FF
:1008F00070E080E090E01F910F91FF90EF90DF900B
:10090000CF90089510922B0110922A0188EE93E067
:10091000A0E0B0E080932C0190932D01A0932E01D4
:10092000B0932F0184E091E09093290180932801F6
:1009300085EC90E0909335018093340184EC90E055
:10094000909337018093360180EC90E090933901C9
:100950008093380181EC90E090933B0180933A01C1
:1009600082EC90E090933D0180933C0186EC90E016
:1009700090933F0180933E011092410110924201F9
:1009800010924301109244018091E9018C3098F457
:1009900091E0980F9093E9018093EA0190E0FC01C7
:1009A000EE0FFF1FE80FF91FEB53FE4F88EB9BE0A4
:1009B0009283818308958FEF8093EA010895CF9306
:1009C000DF93CDB7DEB7A5970FB6F894DEBF0FBEA5
:1009D000CDBF789484B5826084BD84B5816084BDC8
:1009E00085B5826085BD85B5816085BD80916E00CD
:1009F000816080936E0010928100809181008260FE
:100A0000809381008091810081608093810080913A
:100A100080008160809380008091B1008460809329
:100A2000B1008091B00081608093B00080917A0025
:100A3000846080937A0080917A00826080937A004B
:100A400080917A00816080937A0080917A0080683A
:100A500080937A001092C10061E08BE00E943D011A
:100A600060E08CE00E943D01E0913801F091390195
:100A700082E08083E0913401F09135011082E091B1
:100A80003601F09137018FEC808310924001E091A4
:100A90003C01F0913D0186E08083E0913A01F091C4
:100AA0003B01808180618083E0913A01F0913B01BC
:100AB000808188608083E0913A01F0913B018081E0
:100AC00080688083E0913A01F0913B0180818F7DC5
:100AD00080838091EA018C3008F051C061E08AE0A7
:100AE0000E943D018091EA01282F30E0F901EE0FCC
:100AF000FF1FE20FF31FEB53FE4F9081907C9A6033
:100B000090831092EB011092EC012CE0622F0E9476
:100B10004408829FB001112430E020E0AB01420F75
:100B2000531FFA01EE0FFF1FE40FF51FEB53FE4FAB
:100B3000908196FD16C02F5F3F4F2C30310571F725
:100B400081110FC01092800082E08093810010928A
:100B5000850010928400B19A80916F00826080932A
:100B60006F00E091EA018E2F90E0FC01EE0FFF1F75
:100B7000E80FF91FEB53FE4F80818064808343E2CE
:100B8000242E312C5AE0C52ED12CE12CF12C60E022
:100B9000862E60E0962E60E08BE00E94F10062E01D
:100BA00070E080E090E00E94930161E08BE00E94A1
:100BB000F100C1010197F1F760E08BE00E94F100C4
:100BC000E6EAF0E06491E2E9F0E08491E82FF0E0F9
:100BD000EE0FFF1FE859FF4F8591949100E412E456
:100BE0002FE030E0462F0E943D042B013C014114D0
:100BF00051046104710439F0FFEF4F1A5F0A6F0A64
:100C00007F0A8FE078224092190150921A01609277
:100C10001B0170921C01411451046104710471F4B0
:100C200060E08CE00E94F10061E070E080E090E024
:100C30000E94930160E08CE00E943D01C301B2017B
:100C400095958795779567950E944B0726E933E43C
:100C50004BE05DE30E94AF0720E030E040E05FE35F
:100C60000E94AF070E9413076AA37BA38CA39DA3D6
:100C7000AAA0BBA040901D0150901E01052C000CA5
:100C80006608770877FE4DC06DE288E291E00E9429
:100C9000650222273327A901241935094609570976
:100CA00019A28E010F5D1F4FCA01B901A70196015C
:100CB0000E94E206605DF80162938F012115310503
:100CC0004105510589F70115110519F0C8010E9468
:100CD000D20282E191E00E94D20285E191E00E947D
:100CE000D20262E370E080E090E00E9493018AA16A
:100CF0009BA190931E0180931D0195E0A916B1045C
:100D000034F584EB90E00E948C008114910409F486
:100D100042CF0E942F02882309F43DCF0E94000099
:100D20003ACFA301920119A28E010F5D1F4FCA0194
:100D3000B901A70196010E94E206605DF801629385
:100D40008F01211531054105510589F7BCCF82E896
:100D500090E0EAE0AE16B104B4F28AE590E0D3CFB9
:100D6000052E97FB1EF400940E94C70657FD07D07E
:100D70000E94E20607FC03D04EF40C94C70650957F
:100D80004095309521953F4F4F4F5F4F0895909577
:100D90008095709561957F4F8F4F9F4F08950E946A
:100DA0000407A59F900DB49F900DA49F800D911DE9
:100DB00011240895B7FF0C94CF060E94CF06821B22
:100DC000930B0895A1E21A2EAA1BBB1BFD010DC0B7
:100DD000AA1FBB1FEE1FFF1FA217B307E407F507EB
:100DE00020F0A21BB30BE40BF50B661F771F881FC7
:100DF000991F1A9469F760957095809590959B015D
:100E0000AC01BD01CF010895A29FB001B39FC00105
:100E1000A39F700D811D1124911DB29F700D811D26
:100E20001124911D08950E941A076894B1110C9421
:100E3000A90708950E948E0788F09F5798F0B92F50
:100E40009927B751B0F0E1F0660F771F881F991FFF
:100E50001AF0BA95C9F714C0B13091F00E94A807F2
:100E6000B1E008950C94A807672F782F8827B85F02
:100E700039F0B93FCCF3869577956795B395D9F757
:100E80003EF490958095709561957F4F8F4F9F4F61
:100E90000895E89409C097FB3EF49095809570956D
:100EA00061957F4F8F4F9F4F9923A9F0F92F96E9B6
:100EB000BB279395F695879577956795B795F1112B
:100EC000F8CFFAF4BB0F11F460FF1BC06F5F7F4FC8
:100ED0008F4F9F4F16C0882311F096E911C07723DA
:100EE00021F09EE8872F762F05C0662371F096E8E3
:100EF000862F70E060E02AF09A95660F771F881FB2
:100F0000DAF7880F9695879597F9089557FD9058C9
:100F1000440F551F59F05F3F71F04795880F97FBBD
:100F2000991F61F09F3F79F0879508951216130677
:100F30001406551FF2CF4695F1DF08C016161706A6
:100F40001806991FF1CF86957105610508940895DB
:100F5000E894BB2766277727CB0197F908950E946D
:100F6000C2070C9433080E94250838F00E942C0810
:100F700020F0952311F00C941C080C9422081124E5
:100F80000C94A9070E94860770F3959FC1F3950FF3
:100F900050E0551F629FF001729FBB27F00DB11DFD
:100FA000639FAA27F00DB11DAA1F649F6627B00D8D
:100FB000A11D661F829F2227B00DA11D621F739F76
:100FC000B00DA11D621F839FA00D611D221F749F84
:100FD0003327A00D611D231F849F600D211D822FCB
:100FE000762F6A2F11249F5750409AF0F1F08823F2
:100FF0004AF0EE0FFF1FBB1F661F771F881F91501F
:101000005040A9F79E3F510580F00C941C080C94A9
:10101000A9075F3FE4F3983ED4F3869577956795EB
:10102000B795F795E7959F5FC1F7FE2B880F911D48
:101030009695879597F9089597F99F6780E870E0EE
:1010400060E008959FEF80EC089500240A9416163E
:10105000170618060906089500240A9412161306A6
:10106000140605060895092E0394000C11F4882334
:1010700052F0BB0F40F4BF2B11F460FF04C06F5F50
:101080007F4F8F4F9F4F0895991B79E004C0991FA0
:10109000961708F0961B881F7A95C9F780950895D2
:1010A000EE0FFF1F0590F491E02D0994F894FFCF07
:1010B000000000006502C501F201B2022302010234
:0810C0001502636D000D0A002A
:00000001FF
