:100000000C9462000C948A000C948A000C948A0070
:100010000C948A000C948A000C948A000C94EC04D2
:100020000C948A000C948A000C948A000C9430047E
:100030000C948A000C948A000C948A000C948A0018
:100040000C948E030C948A000C94FE030C94D80339
:100050000C948A000C948A000C948A000C948A00F8
:100060000C948A000C948A00000000080002010031
:100070000003040700000000000000000000000072
:10008000240027002A000000000023002600290089
:1000900000000000250028002B00040404040404D0
:1000A0000404020202020202030303030303010227
:1000B00004081020408001020408102001020408F6
:1000C0001020560511241FBECFEFD8E0DEBFCDBFF4
:1000D00011E0A0E0B1E0E6E0F5E102C005900D928C
:1000E000AA31B107D9F722E0AAE1B1E001C01D921F
:1000F000A730B207E1F710E0C2E6D0E004C02197D4
:10010000FE010E947B0AC136D107C9F70E94EF05A4
:100110000C94810A0C9400008F929F92AF92BF9230
:10012000FF920F931F93CF93DF93F090F2012BE098
:100130002F1508F44CC02091F40108E512E0021BD1
:10014000110927FD1395000F111F000F111F20919A
:10015000F301C8E8D0E0C21BD10927FDD395CC0F2D
:10016000DD1FCC0FDD1F4E010D2E000CAA08BB08B1
:100170009801012E000C440B550B281939094A0926
:100180005B09DC010E94DD0824EB30E040E050E038
:100190000E94B308820E931EA41EB51E8C169D06E7
:1001A0002CF0E801801691060CF4E4012297CC0FA4
:1001B000DD1F2FB7F8948F2D90E0FC01EE0FFF1F8D
:1001C000E80FF91FE353FE4FD283C1832FBFDF91A6
:1001D000CF911F910F91FF90BF90AF909F908F9004
:1001E000089590E0FC01E859FF4F2491FC01E2558D
:1001F000FF4F3491FC01E656FF4FE491EE23C9F026
:10020000222339F0233001F1A8F4213019F12230F2
:1002100029F1F0E0EE0FFF1FE057FF4FA591B491D9
:100220008FB7F894EC91611126C030953E233C9332
:100230008FBF08952730A9F02830C9F0243049F73E
:10024000809180008F7D03C0809180008F778093A4
:100250008000DFCF84B58F7784BDDBCF84B58F7D01
:10026000FBCF8091B0008F778093B000D2CF809188
:10027000B0008F7DF9CF3E2BDACFCF93DF9390E0A4
:10028000FC01E255FF4F249186569F4FFC0184915B
:100290008823D1F090E0880F991FFC01E458FF4FAC
:1002A000A591B491FC01E057FF4FC591D491611124
:1002B0000EC09FB7F8948C91E22FE0958E238C931B
:1002C0002881E223E8839FBFDF91CF9108958FB704
:1002D000F894EC91E22BEC938FBFF6CF1F93CF9362
:1002E000DF93182FEB0161E00E943D01209739F464
:1002F00060E0812FDF91CF911F910C94F100CF3FEF
:10030000D10511F461E0F5CFE12FF0E0E859FF4F9E
:10031000E491E33031F140F4E130B1F0E230E1F06A
:10032000C038D1057CF7E4CFE73029F1E83059F146
:10033000E430B1F780918000806280938000D09398
:100340008B00C0938A0004C084B5806884BDC7BD9B
:10035000DF91CF911F91089584B5806284BDC8BD9F
:10036000F7CF80918000806880938000D0938900CF
:10037000C0938800EDCF8091B00080688093B0007A
:10038000C093B300E5CF8091B00080628093B0004D
:10039000C093B400DDCF3FB7F89480912C019091C9
:1003A0002D01A0912E01B0912F0126B5A89B05C06B
:1003B0002F3F19F00196A11DB11D3FBFBA2FA92FE4
:1003C000982F8827BC01CD01620F711D811D911DE1
:1003D00042E0660F771F881F991F4A95D1F708954D
:1003E0008F929F92AF92BF92CF92DF92EF92FF9245
:1003F0004B015C010E94CB016B017C010E94CB018F
:100400006C197D098E099F09683E7340810591052D
:10041000A8F321E0821A9108A108B10888EEC80E5D
:1004200083E0D81EE11CF11C81149104A104B104E5
:1004300029F7FF90EF90DF90CF90BF90AF909F9003
:100440008F900895AF92BF92CF92DF92EF92FF927A
:100450000F931F93CF93DF936C017B018B01040FEC
:10046000151FEB015E01AE18BF08C017D10759F088
:100470006991D601ED91FC910190F081E02DC601CA
:100480000995892B79F7C501DF91CF911F910F91C4
:10049000FF90EF90DF90CF90BF90AF900895FC0158
:1004A000538D448D252F30E0842F90E0821B930BD9
:1004B000541710F0CF96089501970895FC01918D7F
:1004C000828D981761F0A28DAE0FBF2FB11D5D9682
:1004D0008C91928D9F5F9F73928F90E008958FEF24
:1004E0009FEF0895FC01918D828D981731F0828DD8
:1004F000E80FF11D858D90E008958FEF9FEF08952F
:10050000FC01918D228D892F90E0805C9F4F821B92
:1005100091098F739927089580E391E00E948002EA
:1005200021E0892B09F420E0822F089580E090E0FB
:10053000892B29F00E948C0281110C9400000895EF
:10054000FC01A48DA80FB92FB11DA35ABF4F2C9148
:10055000848D90E001968F739927848FA689B7893F
:100560002C93A089B1898C91837080648C93938D36
:10057000848D981306C00288F389E02D80818F7DD9
:1005800080830895EF92FF920F931F93CF93DF9391
:10059000EC0181E0888F9B8D8C8D98131AC0E889BF
:1005A000F989808185FF15C09FB7F894EE89FF898E
:1005B0006083E889F98980818370806480839FBF2C
:1005C00081E090E0DF91CF911F910F91FF90EF902C
:1005D0000895F62E0B8D10E00F5F1F4F0F7311273C
:1005E000E02E8C8D8E110CC00FB607FCFACFE88977
:1005F000F989808185FFF5CFCE010E94A002F1CF5D
:10060000EB8DEC0FFD2FF11DE35AFF4FF0829FB7EA
:10061000F8940B8FEA89FB8980818062CFCFCF93DA
:10062000DF93EC01888D8823B9F0AA89BB89E8891A
:10063000F9898C9185FD03C0808186FD0DC00FB6C0
:1006400007FCF7CF8C9185FFF2CF808185FFEDCF3E
:10065000CE010E94A002E9CFDF91CF910895FC0165
:1006600001900020E9F73197AF01481B590BBC01FD
:1006700080E391E00C9422028F929F92AF92BF92FE
:100680000F931F93CF93DF93CDB7DEB7A1970FB62C
:10069000F894DEBF0FBECDBF19A2423008F44AE085
:1006A0008E010F5D1F4F842E912CB12CA12CA50122
:1006B00094010E94E508E62FB901CA01EA30F4F47A
:1006C000E05DD801EE938D01232B242B252B79F7A8
:1006D00090E080E0109719F0CD010E942F03A196C1
:1006E0000FB6F894DEBF0FBECDBFDF91CF911F9143
:1006F0000F91BF90AF909F908F900895E95CE1CFEC
:10070000CF93DF930E942F03EC0182E191E00E94DE
:100710002F038C0F9D1FDF91CF9108951F920F9291
:100720000FB60F9211242F933F938F939F93AF9304
:10073000BF938091280190912901A0912A01B09145
:100740002B013091270123E0230F2D3758F5019617
:10075000A11DB11D209327018093280190932901A9
:10076000A0932A01B0932B0180912C0190912D012F
:10077000A0912E01B0912F010196A11DB11D809372
:100780002C0190932D01A0932E01B0932F01BF91C6
:10079000AF919F918F913F912F910F900FBE0F902E
:1007A0001F90189526E8230F0296A11DB11DD2CFE8
:1007B0001F920F920FB60F9211242F933F934F93D6
:1007C0005F936F937F938F939F93AF93BF93EF93B9
:1007D000FF9380E391E00E94A002FF91EF91BF910F
:1007E000AF919F918F917F916F915F914F913F91C9
:1007F0002F910F900FBE0F901F9018951F920F9280
:100800000FB60F9211242F938F939F93EF93FF9323
:10081000E0914001F09141018081E0914601F09129
:10082000470182FD1BC09081809149018F5F8F73CA
:1008300020914A01821741F0E0914901F0E0E05D2A
:10084000FE4F958F80934901FF91EF919F918F917A
:100850002F910F900FBE0F901F9018958081F4CFAD
:100860001F920F920FB60F9211242F933F934F9325
:100870005F936F937F938F939F93AF93BF93CF9328
:10088000DF93EF93FF9380911E01C091F101D0E0BF
:1008900087FF24C0109285001092840080911E0171
:1008A0008F5F80931E0180911E01082E000C990B12
:1008B0008C179D0724F480911E018C30C4F1809127
:1008C000840090918500049680349C4908F47AC095
:1008D0008091840090918500049676C080911E01DD
:1008E000082E000C990B8C179D07C4F6E0911E0191
:1008F0008E2FEE0F990BFC01EE0FFF1FE80FF91F73
:10090000E353FE4F808186FFC9CFE0911E018E2FF9
:10091000EE0F990BFC01EE0FFF1FE80FF91FE353D9
:10092000FE4F808160E08F730E94F100B7CF20916D
:10093000840030918500E0911E018E2FEE0F990BFF
:10094000FC01EE0FFF1FE80FF91FE353FE4F8181FB
:100950009281820F931F9093890080938800E09189
:100960001E018E2FEE0F990BFC01EE0FFF1FE80FFB
:10097000F91FE353FE4F808186FF11C0E0911E01F5
:100980008E2FEE0F990BFC01EE0FFF1FE80FF91FE2
:10099000E353FE4F808161E08F730E94F100FF916D
:1009A000EF91DF91CF91BF91AF919F918F917F9107
:1009B0006F915F914F913F912F910F900FBE0F90CC
:1009C0001F90189580E49CE990938900809388009B
:1009D0008FEF80931E01E3CF1F920F920FB60F92FD
:1009E00011242F933F934F935F936F937F938F9334
:1009F0009F93AF93BF93EF93FF93F0E0E0E00995EF
:100A0000FF91EF91BF91AF919F918F917F916F91E6
:100A10005F914F913F912F910F900FBE0F901F90BC
:100A20001895CF92DF92EF92FF920F931F93E82FCA
:100A3000F92F05C0015011092109310961F1908197
:100A400096239417B9F305C0015011092109310902
:100A500011F1908196239413F7CFC12CD12CE12C66
:100A6000F12C0AC08FEFC81AD80AE80AF80A0C1548
:100A70001D052E053F0579F080818623841791F3AB
:100A80006C2D7D2D8E2D9F2D1F910F91FF90EF903E
:100A9000DF90CF90089560E070E080E090E01F91DB
:100AA0000F91FF90EF90DF90CF9008951092330157
:100AB0001092320188EE93E0A0E0B0E08093340120
:100AC00090933501A0933601B093370184E091E013
:100AD000909331018093300185EC90E090933D013B
:100AE00080933C0184EC90E090933F0180933E0121
:100AF00080EC90E0909341018093400181EC90E084
:100B0000909343018093420182EC90E090934501E1
:100B10008093440186EC90E09093470180934601D6
:100B20001092490110924A0110924B0110924C010F
:100B3000EAEBF0E0E491E093F901E9EBF0E0E49115
:100B4000E093FA0186EA90E0FC012491E22FF0E0C4
:100B5000EE0FFF1FE057FF4F259134913093FC01BA
:100B60002093FB01E5EAF0E0E491F0E0EE0FFF1FD7
:100B7000EA57FF4F259134913093FE012093FD01F8
:100B8000FC018491E82FF0E0EE0FFF1FE458FF4FC7
:100B900085919491909300028093FF0181EC9CE2F7
:100BA00090930202809301028091F1018C3098F4BD
:100BB00091E0980F9093F1018093F20190E0FC0195
:100BC000EE0FFF1FE80FF91FE353FE4F88EB9BE08A
:100BD0009283818308958FEF8093F2010895789432
:100BE00084B5826084BD84B5816084BD85B5826032
:100BF00085BD85B5816085BD80916E0081608093E3
:100C00006E0010928100809181008260809381004B
:100C1000809181008160809381008091800081605B
:100C2000809380008091B10084608093B1008091B6
:100C3000B00081608093B00080917A0084608093DE
:100C40007A0080917A00826080937A0080917A00A5
:100C5000816080937A0080917A00806880937A0026
:100C60001092C100E0914001F091410182E0808347
:100C7000E0913C01F0913D011082E0913E01F09144
:100C80003F018FEC808310924801E0914401F09184
:100C9000450186E08083E0914201F091430180812B
:100CA00080618083E0914201F091430180818860FE
:100CB0008083E0914201F0914301808180688083CC
:100CC000E0914201F091430180818F7D808361E05A
:100CD0008BE00E943D0160E08CE00E943D0180912C
:100CE000F2018C3008F051C061E08AE00E943D01C1
:100CF0008091F201282F30E0F901EE0FFF1FE20F83
:100D0000F31FE353FE4F9081907C9A609083109282
:100D1000F3011092F4012CE0622F0E94470A829F97
:100D2000B001112430E020E0AB01420F531FFA0163
:100D3000EE0FFF1FE40FF51FE353FE4F908196FD6A
:100D400016C02F5F3F4F2C30310571F781110FC056
:100D50001092800082E080938100109285001092B2
:100D60008400B19A80916F00826080936F00E0915F
:100D7000F2018E2F90E0FC01EE0FFF1FE80FF91F2C
:100D8000E353FE4F80818064808349E3442E512CDD
:100D9000612C712C5AE0252E312CE091FF01F0914D
:100DA000000280819091F901892B8083E091FB0101
:100DB000F091FC0190818091F901809589238083D5
:100DC0008BE090E00197F1F7E091FB01F091FC01DD
:100DD00080819091F901892B808383E290E00197D3
:100DE000F1F7E091FB01F091FC0190818091F90114
:100DF000809589238083E091FF01F091000290812A
:100E00008091F901809589238083E091FD01F09123
:100E1000FE0180819091FA01892309F4D7C050E046
:100E200040E0BA0190E080E0A30192010E94E50851
:100E3000CA01B9014AE00E943C0382E191E00E94AC
:100E40002F0362E370E080E090E00E94F00160E038
:100E50008BE00E94F10062E070E080E090E00E9490
:100E6000F00161E08BE00E94F10083E290E00197E5
:100E7000F1F760E08BE00E94F100EAEBF0E06491B2
:100E8000E6EAF0E08491E82FF0E0EE0FFF1FEA576A
:100E9000FF4F8591949100E412E42FE030E0462F5B
:100EA0000E9411056B017C01C114D104E104F1041D
:100EB00039F0FFEFCF1ADF0AEF0AFF0A8FE0F822BE
:100EC000C0921F01D0922001E0922101F0922201F4
:100ED000C114D104E104F10471F460E08CE00E94DB
:100EE000F10061E070E080E090E00E94F00160E0DD
:100EF0008CE00E943D01C701B601959587957795D5
:100F000067950E944E0926E933E44BE05DE30E94B9
:100F1000B20920E030E040E05FE30E94B2090E94A5
:100F200016094B01EB01C0902501D09026010D2C34
:100F3000000CEE08FF084AE0C701B601F7FE0DC03D
:100F40006DE280E391E00E94C20266277727CB0121
:100F50006C197D098E099F094AE00E943C0385E1D6
:100F600091E00E94800362E370E080E090E00E94E4
:100F7000F0019092260180922501C530D1050CF038
:100F8000E7C0D0E0C0E0BE0189E00E946E0110928F
:100F9000240110922301CE01B1010E94530A7B016A
:100FA00080912301909124018E159F050CF082C041
:100FB00088E191E00E942F03809123019091240108
:100FC00001969093240180932301EACF0E94CB01E4
:100FD000AB01BC018091010290910202B0E0A0E05F
:100FE0008855994EAF4FBF4F840F951FA61FB71F4F
:100FF0008093030290930402A0930502B09306022B
:10100000E091FD01F091FE0180819091FA01892328
:1010100081F40E94CB01C0900302D0900402E090C2
:101020000502F0900602C616D706E806F90640F754
:10103000F6CE0E94CB012091010230910202AB0159
:10104000BC01420F531F611D711D40930302509359
:1010500004026093050270930602E091FD01F09195
:10106000FE0180819091FA01892381F00E94CB01D9
:10107000C0900302D0900402E0900502F0900602B6
:10108000C616D706E806F90640F7C9CE0E94CB017E
:101090002091010230910202A9014550510920918D
:1010A000030230910402FA01E21BF30BAF01460F79
:1010B000571FB7CE84E191E00E9480036EE170E09B
:1010C00080E090E00E94F0012596C43091E0D907BD
:1010D00009F059CFCFEFD0E0BE0189E00E946E0148
:1010E0001092240110922301CE01B1010E94530AF3
:1010F0007B0180912301909124018E159F0574F44A
:1011000088E191E00E942F038091230190912401B6
:1011100001969093240180932301EBCF84E191E029
:101120000E9480032597CB3FEFEFDE07A9F684EB03
:1011300090E00E948C0080E090E0892B09F42DCE95
:101140000E948C02882309F428CE0E94000025CE3C
:101150008AE590E02B976CF360E089E00E94F10053
:1011600082E890E0E6CF052E97FB1EF400940E94E3
:10117000CA0857FD07D00E94E50807FC03D04EF4CB
:101180000C94CA0850954095309521953F4F4F4F8C
:101190005F4F089590958095709561957F4F8F4F23
:1011A0009F4F08950E940709A59F900DB49F900D31
:1011B000A49F800D911D11240895B7FF0C94D208AF
:1011C0000E94D208821B930B0895A1E21A2EAA1B3B
:1011D000BB1BFD010DC0AA1FBB1FEE1FFF1FA217E7
:1011E000B307E407F50720F0A21BB30BE40BF50BE4
:1011F000661F771F881F991F1A9469F7609570956D
:10120000809590959B01AC01BD01CF010895A29FEF
:10121000B001B39FC001A39F700D811D1124911DCA
:10122000B29F700D811D1124911D08950E941D090A
:101230006894B1110C94AC0908950E94910988F04A
:101240009F5798F0B92F9927B751B0F0E1F0660F8A
:10125000771F881F991F1AF0BA95C9F714C0B130CB
:1012600091F00E94AB09B1E008950C94AB09672F8F
:10127000782F8827B85F39F0B93FCCF386957795FA
:101280006795B395D9F73EF49095809570956195E3
:101290007F4F8F4F9F4F0895E89409C097FB3EF40E
:1012A00090958095709561957F4F8F4F9F4F9923B3
:1012B000A9F0F92F96E9BB279395F6958795779531
:1012C0006795B795F111F8CFFAF4BB0F11F460FFF1
:1012D0001BC06F5F7F4F8F4F9F4F16C0882311F049
:1012E00096E911C0772321F09EE8872F762F05C05D
:1012F000662371F096E8862F70E060E02AF09A95F8
:10130000660F771F881FDAF7880F9695879597F9EC
:10131000089557FD9058440F551F59F05F3F71F0E5
:101320004795880F97FB991F61F09F3F79F087954C
:101330000895121613061406551FF2CF4695F1DFD5
:1013400008C0161617061806991FF1CF8695710565
:10135000610508940895E894BB2766277727CB0199
:1013600097F908950E94C5090C94360A0E94280A2C
:1013700038F00E942F0A20F0952311F00C941F0AD8
:101380000C94250A11240C94AC090E94890970F36D
:10139000959FC1F3950F50E0551F629FF001729F1A
:1013A000BB27F00DB11D639FAA27F00DB11DAA1F29
:1013B000649F6627B00DA11D661F829F2227B00D76
:1013C000A11D621F739FB00DA11D621F839FA00D01
:1013D000611D221F749F3327A00D611D231F849F51
:1013E000600D211D822F762F6A2F11249F575040A8
:1013F0009AF0F1F088234AF0EE0FFF1FBB1F661F23
:10140000771F881F91505040A9F79E3F510580F0EB
:101410000C941F0A0C94AC095F3FE4F3983ED4F39C
:10142000869577956795B795F795E7959F5FC1F78F
:10143000FE2B880F911D9695879597F9089597F93A
:101440009F6780E870E060E008959FEF80EC08956A
:1014500000240A9416161706180609060895002493
:101460000A9412161306140605060895092E03940D
:10147000000C11F4882352F0BB0F40F4BF2B11F481
:1014800060FF04C06F5F7F4F8F4F9F4F0895991B80
:1014900079E004C0991F961708F0961B881F7A956B
:1014A000C9F78095089597FB072E16F4009407D08E
:1014B00077FD09D00E94670A07FC05D03EF490959D
:1014C00081959F4F0895709561957F4F0895AA1B50
:1014D000BB1B51E107C0AA1FBB1FA617B70710F01F
:1014E000A61BB70B881F991F5A95A9F78095909551
:1014F000BC01CD010895EE0FFF1F0590F491E02D82
:061500000994F894FFCFEE
:1015060000000000C20222024F020F0380025E02A8
:0A15160072020D0A00636D002D0043
:00000001FF
